:100000000C942B010C9460090C9439090C9412097E
:100010000C94EB080C9453010C9453010C94C408F9
:100020000C9453010C9453010C9487090C94F60919
:100030000C9453010C9453010C9453010C945301F0
:100040000C9453010C9453010C9453010C945301E0
:100050000C9453010C9453010C9453010C947A08A2
:100060000C9453010C9453010C9453010C945301C0
:100070000C9453010C9453010C9453010C945301B0
:100080000C9453010C9453010C9453010C945301A0
:100090000C9453010C9453010C9453010C94530190
:1000A0000C9453010C9453010C9453010000000074
:1000B0002300260029002C002F0000000002000968
:1000C0000F0000030401000C00000000000000000D
:1000D000000000000000000000080B000202020007
:1000E00000090400000102020000052400100105BF
:1000F00024010101042402060524060001070581EC
:100100000310004009040100020A00000007050274
:1001100002400000070583024000000403090412A6
:10012000010002EF02014041233780000101020378
:100130000141726475696E6F204C4C4300417264DA
:1001400075696E6F204D6963726F000000000025B5
:100150000028002B002E00310000000000240027A2
:10016000002A002D003000040404040403040502E6
:100170000202020403020202020606060606060442
:10018000040202020404040802011040804010200E
:10019000408040800802040180402010020110804D
:1001A000102040402000000000000000002A2B2802
:1001B000000000000000000000000000000000003F
:1001C00000000000002C9EB4A0A1A2A434A6A7A504
:1001D000AE362D3738271E1F20212223242526B393
:1001E00033B62EB7B89F8485868788898A8B8C8D95
:1001F0008E8F909192939495969798999A9B9C9DA7
:100200002F3130A3AD350405060708090A0B0C0D84
:100210000E0F101112131415161718191A1B1C1D86
:10022000AFB1B0B50005010906A1018502050719A6
:10023000E029E715002501750195088102950175F2
:10024000088103950675081500257305071900290F
:10025000738100C0280C11241FBECFEFDAE0DEBF8F
:10026000CDBF11E0A0E0B1E0ECE7F5E202C00590FF
:100270000D92AA36B107D9F722E0AAE6B1E001C093
:100280001D92AA3EB207E1F711E0CBE2D1E004C033
:100290002197FE010E94B612CA32D107C9F70E9407
:1002A000E50D0C94BC120C940000CF93DF93FC017D
:1002B00081819091ED01482F490F5527551F4830F6
:1002C00051059CF5A281B381109709F529EE31E023
:1002D0003383228320812093EB018093EC01809172
:1002E000EE01820F80832091EF01A22FB091F001E7
:1002F0008A2F821B8917E8F481813D91C82FD0E0B5
:10030000CA5EDE4F38838F5F8183F2CFD9011896A2
:100310002D913C91199721153105C1F729EE31E056
:1003200019963C932E931897D5CF80E0DF91CF910B
:10033000089581E0FBCFFC0180919801882311F1A1
:100340003FB7F89482E08093E9002091F200822F79
:1003500090E01816190614F481E090E0882339F033
:10036000289A44E6409397014091F100408322236C
:1003700039F02091F200211103C02BE62093E80010
:100380003FBF08958FEF9FEF0895DC01FB011296A8
:100390002C911297848195812817190641F4918137
:1003A0008081813A31F49D7F81E0913009F080E0D5
:1003B00008958132E1F79B3029F482811F968C9356
:1003C00081E008959A3099F7828150968C93F8CF06
:1003D000DC01FB0188E4808389E4818384E48283F7
:1003E0001D969C911D979F709F5B93831D968D9189
:1003F0009C9124E0969587952A95E1F78F708F5B05
:10040000848385E0089580918F0181110DC082E081
:1004100080938B0184E080938C0110928E01109266
:100420008D0181E080938F018BE891E00895CF9357
:10043000DF9390E0FC01EA57FE4F249189599E4FCB
:10044000FC0184918823C9F090E0880F991FFC017A
:10045000E75AFE4FA591B491FC01E55BFE4FC591B3
:10046000D49161110DC09FB7F8948C91209582238F
:100470008C938881282328839FBFDF91CF91089593
:10048000623051F49FB7F8943C91822F809583237A
:100490008C93E8812E2BEFCF8FB7F894EC912E2B15
:1004A0002C938FBFEACF3FB7F8948091870190914A
:1004B0008801A0918901B0918A0126B5A89B05C049
:1004C0002F3F19F00196A11DB11D3FBFBA2FA92FD3
:1004D000982F8827BC01CD01620F711D811D911DD0
:1004E00042E0660F771F881F991F4A95D1F708953C
:1004F000CF92DF92EF92FF920E9453026B017C0138
:100500000E9453026C197D098E099F09683E734051
:1005100081059105A8F3FF90EF90DF90CF900895AB
:100520002FB7F894609183017091840180918501C7
:10053000909186012FBF0895089540917C015091BC
:100540007D0120917A0130917B0142175307B4F469
:100550009091E8009570E1F39091E80092FD19C048
:100560008093F10080917C0190917D0101968F73C1
:100570009927892B19F48EEF8093E80080917C01F4
:1005800090917D01019690937D0180937C0181E0A3
:10059000089580E00895EF92FF920F931F93CF93F9
:1005A000DF93F82E192FE62E042F81E0860F880F97
:1005B0000E949D0283E00E949D02CF2DD12FEC0E60
:1005C000FD2EF11CCE15DF05B9F007FF13C0FE01AB
:1005D00084910E949D02182F80E00E949D02812339
:1005E00021968111EFCFDF91CF911F910F91FF9055
:1005F000EF9008958881EDCF81E0F5CFDF92EF9203
:10060000FF920F931F93CF93DF93D82E8A01EB01B4
:100610007B01E40EF51ECE15DF0559F0D7FE12C0A2
:10062000FE0184910E949D0221968111F4CF0FEF6B
:100630001FEFC801DF91CF911F910F91FF90EF90B5
:10064000DF9008958881EECFEF92FF920F931F9372
:10065000CF93DF93FB012081213871F52381223272
:1006600059F5DC0112964C9124813581421713060D
:1006700019F5EC010B851C85F12CE12C01151105F8
:1006800089F0F801448155816281738180E80E947C
:10069000FE028F3F980749F0E80EF91ED8010D9130
:1006A0001C91ECCF81E08F87C701DF91CF911F9123
:1006B0000F91FF90EF90089590E080E0F6CFCF93F8
:1006C000DF93CDB7DEB769970FB6F894DEBF0FBEE4
:1006D000CDBFFC01DB018C918F5F8C939E012D5F60
:1006E0003F4F8DE0D9011D928A95E9F729E02983D2
:1006F00084E08A8391E09D8383E08E832A8721E2D0
:100700002B879C879D879F8722E2288B27E02B8B56
:1007100025E02C8B8E8B20E430E0388F2F8B998F47
:1007200082818B8395858685998B8A8B838180686E
:100730008D8B49E150E0BE016F5F7F4F80E00E94EA
:10074000FE0269960FB6F894DEBF0FBECDBFDF91F3
:10075000CF9108950F931F93CF93DF931F92CDB73F
:10076000DEB782E0898342E450E069ED70E080E822
:100770000E94FE020E940302DC0112960D911C9160
:100780000115110589F0D801ED91FC910280F381EA
:10079000E02DBE016F5F7F4FC801099597FD04C032
:1007A000F80100851185ECCF89810F90DF91CF9101
:1007B0001F910F9108952FB7F89487708093E900E7
:1007C0009091E800892F807295FF04C09091F2000B
:1007D00080E4891B2FBF08957F928F929F92AF92E2
:1007E000BF92CF92DF92EF92FF920F931F93CF931E
:1007F000DF93C82E8B017A0180919801811110C07E
:100800008FEF9FEFDF91CF911F910F91FF90EF90AE
:10081000DF90CF90BF90AF909F908F907F90089582
:100820008091800180FF05C08091E000826080930C
:10083000E000CE2DDF2DD12C8AEFB82E8C2D8770C5
:10084000982E8C2D8072882E8C2D8074782E9AE3B1
:10085000A92E209719F4DD2009F44EC08C2D0E949A
:10086000DB03811106C0BA94BB2051F20E947802CA
:10087000F0CF8C171D0611F00CF08C2F9FB7F89459
:100880009092E9002091E80025FD02C09FBFE1CFD2
:10089000282F30E0C21BD30B882029F08150A0F014
:1008A0001092F100FBCFF801C7FC0AC0815050F054
:1008B00041914093F100FACF44914093F100319679
:1008C0008150D0F7020F131FDD2021F0A092E80025
:1008D000D12CDCCF8091E80085FD07C0A092E80014
:1008E000DD24D394209791F2F3CF209779F67720E7
:1008F00069F2A092E800CACF5D9A84E680937F01F6
:10090000C70180CFEF92FF921F93CF93DF931F9287
:10091000CDB7DEB77C018091FA0181112AC011E0C8
:100920001093ED011093EE0183EF91E09093F001AD
:100930008093EF011092F2011092F10183E391E0B4
:100940009093EA018093E9011092F5011092F4016D
:100950001092F7011092F6011093F8011093F9012B
:1009600081EC8093F3010E9403020E9455011093D1
:10097000FA0182E0898341E050E0BE016F5F7F4F62
:100980008091EC010E94EC0397FD08C08091EC017E
:1009900048E050E0B70180640E94EC030F90DF91C3
:1009A000CF911F91FF90EF900895E0E1F2E0168261
:1009B00017821086118612861386148284E192E0D3
:1009C0000C948204615030F02091F100FC012083EE
:1009D0000196F8CF289A84E6809397010895CF93E3
:1009E000DF93EC0180910B01882331F083E00E94BA
:1009F000EC031816190634F081E090E09B838A839B
:100A000080E090E0DF91CF910895CF93DF931F9224
:100A1000CDB7DEB76983DC01ED91FC910280F381F3
:100A2000E02D41E050E0BE016F5F7F4F09950F90D0
:100A3000DF91CF91089583E08093E9008091F200E7
:100A4000882319F08AE38093E800089583E00E94E8
:100A5000DB0390E00895CF93DF931F92CDB7DEB70D
:100A6000FC018485958597FD08C02FEF3FEF358702
:100A700024870F90DF91CF910895CE0101960E94B7
:100A80009B01019719F4898190E0F3CF8FEF9FEFDD
:100A9000F0CF0F931F93CF93DF931F92CDB7DEB7A5
:100AA0008C01FC018485958597FF0BC0CE010196D2
:100AB0000E949B01019771F4898190E0F80195876C
:100AC0008487F801848595850F90DF91CF911F91E0
:100AD0000F9108958FEF9FEFF1CFFC0184859585ED
:100AE00097FD0BC09FB7F89482E08093E900809156
:100AF000F2009FBF90E0019608959FB7F89482E0BE
:100B00008093E9008091F2009FBF90E00895CF921A
:100B1000DF92EF92FF920F931F93CF93DF936C01BD
:100B2000EB017B01E40EF51E10E000E0CE15DF05C1
:100B300081F069916D30D1F3D601ED91FC91019076
:100B4000F081E02DC6010995892B19F00F5F1F4F29
:100B5000EDCFC801DF91CF911F910F91FF90EF90E2
:100B6000DF90CF900895DC01683888F168581696B8
:100B70008C911697861721F117968C9117978617E7
:100B8000F9F018968C9118978617D1F019968C91D8
:100B900019978617A9F01A968C911A97861781F0E3
:100BA0001B968C911B97861759F0FD01369690E0A5
:100BB00080E0219121114FC08A0F9B1FFC016683A9
:100BC000CD0104960E94820481E090E00895862F72
:100BD00090E067FF12C0FC01E058F10921E030E02D
:100BE00001C0220FEA95EAF714968C911497822B94
:100BF00014968C93149760E0BACF1C96ED91FC91FB
:100C00001D97E80FF91F6491611109C081E090E020
:100C100013969C938E93129790E080E00895862F10
:100C2000807C803C69F414968C91149780641496AF
:100C30008C9314976F73623309F099CF64E697CF62
:100C400067FFF9CF14968C911497826014968C9359
:100C500014976F77F0CF01968630910509F0A9CFF0
:100C6000D5CFEF92FF921F93CF93DF93EC01162F16
:100C70000E94B3057C01E8E7E10F183890F4812F5A
:100C800090E017FF2AC0FC01E058F10981E090E0F4
:100C900001C0880FEA95EAF780959C8189238C83AF
:100CA000E0E0DE0186E0EE2341F016969C91169777
:100CB000E91303C016961C92169781501196811164
:100CC000F2CFCE0104960E948204C7019927DF91DA
:100CD000CF911F91FF90EF900895EC85FD85E80F6F
:100CE000F91FE491EE2389F38E2F807C803C41F440
:100CF0008C818F7B8C83EF73E23399F6E4E6D1CF5E
:100D0000E7FFFACF8C818D7F8C83EF77F5CF089545
:100D100090E080E00895CF93DF93EC018885811106
:100D20000EC0898591E098879A8562E0911101C093
:100D300060E00E9417028FE090E00197F1F72985AB
:100D400030E0F901E654FF4F8491F901EA57FE4F74
:100D5000949129593E4FF9012491222309F460C04E
:100D60008823E9F081508F30D0F4E82FF0E0E5548B
:100D7000F94F0C94B612EB06EF06CA06E306E70637
:100D8000CF06CF06CF06F206F806FC0600070607D8
:100D9000CF060A07809180008F7780938000E22F32
:100DA000F0E0EE0FFF1FE455FF4FA591B491EC91D9
:100DB0009E2331E009F430E0832F2B858227817058
:100DC000DF91CF910895809180008F7DE6CF809153
:100DD0008000877FE2CF84B58F7784BDE0CF84B574
:100DE0008F7DFBCF809190008F7780939000D7CF3D
:100DF000809190008F7DF9CF80919000877FF5CF13
:100E00008091C0008F778093C000C9CF8091C000CF
:100E10008F7DF9CF8091C200877F8093C200BFCFC2
:100E200080E0CBCF0F931F93CF938C010E948B0652
:100E3000C82F0E949002F8012281213091F030F0F9
:100E40002230F1F0233011F1C0E006C0C111FCCF17
:100E50007483638381E082838C2FCF911F910F91E4
:100E60000895CC2311F01282EFCF23813481621BCD
:100E7000730B6F30710580F382E0F8018283E4CF59
:100E8000CC2351F37483638383E0F8CFCC23A1F3A5
:100E900023813481621B730B6F307105A8F21282BB
:100EA000DBCFFC0101900020E9F73197AF01481B2F
:100EB000590BBC0189E991E00C94EF04CF93DF93C7
:100EC0000E945107EC018DE491E00E9451078C0FC4
:100ED0009D1FDF91CF910895CF92DF92EF92FF9205
:100EE0000E9490026B017C0180916A0190916B01DC
:100EF000A0916C01B0916D01A7019601281B390BDF
:100F00004A0B5B0BDA01C90185369105A105B105D4
:100F1000D0F080E591E00E945E0762E880E192E017
:100F20000E94B30561EE80E192E00E94B30568EE95
:100F300080E192E00E94B30565EE80E192E00E94BC
:100F4000B3050E94D504C0926A01D0926B01E09271
:100F50006C01F0926D01FF90EF90DF90CF900895BB
:100F6000CF92DF92EF92FF920E9490026B017C0180
:100F700080916E0190916F01A0917001B09171010B
:100F8000A7019601281B390B4A0B5B0BDA01C9013B
:100F900085369105A105B105D0F085E591E00E9467
:100FA0005E0762E880E192E00E94B30561EE80E1B5
:100FB00092E00E94B30568EE80E192E00E94B305E2
:100FC00066EE80E192E00E94B3050E94D504C092D3
:100FD0006E01D0926F01E0927001F0927101FF906A
:100FE000EF90DF90CF900895CF92DF92EF92FF9233
:100FF0008EE192E00E948B06811140C00E94900217
:101000006B017C018091720190917301A091740138
:10101000B0917501A7019601281B390B4A0B5B0B98
:10102000DA01C90185369105A105B105D0F08AE53F
:1010300091E00E945E0762E880E192E00E94B305C1
:1010400061EE80E192E00E94B30568EE80E192E0FB
:101050000E94B30567EE80E192E00E94B3050E9412
:10106000D504C0927201D0927301E0927401F092A3
:101070007501FF90EF90DF90CF9008950E9490024D
:101080006B017C018091760190917701A0917801AC
:10109000B0917901A7019601281B390B4A0B5B0B14
:1010A000DA01C90185369105A105B105D0F08FE5BA
:1010B00091E00E945E0762E880E192E00E94B30541
:1010C00062EE80E192E00E94B30561EE80E192E081
:1010D0000E94B3056AEE80E192E00E94B3050E948F
:1010E000D504C0927601D0927701E0927801F09217
:1010F0007901BFCF1F920F920FB60F9211242F9339
:101100003F938F939F93AF93BF938091830190916F
:101110008401A0918501B09186013091820123E084
:10112000230F2D3758F50196A11DB11D2093820183
:101130008093830190938401A0938501B0938601ED
:101140008091870190918801A0918901B0918A01D5
:101150000196A11DB11D8093870190938801A093F2
:101160008901B0938A01BF91AF919F918F913F9177
:101170002F910F900FBE0F901F90189526E8230F08
:101180000296A11DB11DD2CF1F920F920FB60F92E2
:1011900011242F933F934F935F936F937F938F937C
:1011A0009F93AF93BF93EF93FF93E0911401F0915E
:1011B00015010995FF91EF91BF91AF919F918F918B
:1011C0007F916F915F914F913F912F910F900FBE43
:1011D0000F901F9018951F920F920FB60F92112427
:1011E0002F933F934F935F936F937F938F939F932F
:1011F000AF93BF93EF93FF93E0911201F09113012E
:101200000995FF91EF91BF91AF919F918F917F9140
:101210006F915F914F913F912F910F900FBE0F9063
:101220001F9018951F920F920FB60F9211242F93B3
:101230003F934F935F936F937F938F939F93AF935E
:10124000BF93EF93FF93E0911001F0911101099585
:10125000FF91EF91BF91AF919F918F917F916F918E
:101260005F914F913F912F910F900FBE0F901F9064
:1012700018951F920F920FB60F9211242F933F9340
:101280004F935F936F937F938F939F93AF93BF938E
:10129000EF93FF93E0910E01F0910F010995FF91FB
:1012A000EF91BF91AF919F918F917F916F915F91DE
:1012B0004F913F912F910F900FBE0F901F90189557
:1012C0001F920F920FB60F9211242F933F934F93BB
:1012D0005F936F937F938F939F93AF93BF93EF939E
:1012E000FF93E0910C01F0910D010995FF91EF91B1
:1012F000BF91AF919F918F917F916F915F914F912E
:101300003F912F910F900FBE0F901F9018951F9235
:101310000F920FB60F9211248F939F938091E1004B
:101320009091E100937F9093E10083FF0FC01092B2
:10133000E90091E09093EB001092EC0092E390931F
:10134000ED001092980198E09093F00082FF22C087
:1013500093E09093E9009091F200992319F09AE3B9
:101360009093E80090917F01992341F090917F0143
:10137000915090937F01911101C05D9890919701D8
:10138000992341F090919701915090939701911179
:1013900001C0289884FF18C08091E2008E7E816091
:1013A0008093E2008091E1008F7E8093E100809144
:1013B00080018E7E8061809380019F918F910F903C
:1013C0000FBE0F901F90189580FFF7CF8091E2001D
:1013D0008E7E80618093E2008091E1008E7E80931A
:1013E000E100809180018E7E8160E5CF1F920F9297
:1013F0000FB60F921124CF92DF92EF92FF920F93CC
:101400001F932F933F934F935F936F937F938F938C
:101410009F93AF93BF93EF93FF93CF93DF93CDB79A
:10142000DEB76C97DEBFCDBF1092E9008091E80077
:1014300083FF25C068E0CE0145960E94E20482EF5A
:101440008093E8008D8987FF39C09091E80090FF74
:10145000FCCF982F907609F034C19E894F89588D22
:101460002F89F88C911131C0803861F5809181010C
:101470008093F1001092F1008EEF8093E8006C965B
:101480000FB6F894DEBF0FBECDBFDF91CF91FF91B5
:10149000EF91BF91AF919F918F917F916F915F91EC
:1014A0004F913F912F911F910F91FF90EF90DF90FF
:1014B000CF900F900FBE0F901F9018959EEF9093B6
:1014C000E800C7CF1092F100D5CF913059F48111C7
:1014D000D3CF4130510581F6809181018D7F80937A
:1014E0008101CACF933049F48111C6CF41305105F3
:1014F00019F6809181018260F2CF953041F480919C
:10150000E80080FFFCCF20682093E300B5CF963041
:1015100009F0A9C00B8D1C8D22E01092E9001092F9
:101520007D0110927C01F2122EC010927B0110926C
:101530007A010E94AA031F8299E09983FA8291E0BE
:101540009E8390EA98879AEF998720917C01309149
:101550007D01275F3F4F3C832B838D831092E900F1
:1015600010927D0110927C0110937B0100937A010F
:1015700049E050E0BE016F5F7F4F80E00E94FE02B5
:101580000E94AA0379CF10937B0100937A010E94F5
:101590000302DC0112960D911C910115110509F44D
:1015A00051C1D801ED91FC910480F581E02DBE017F
:1015B0006B5E7F4FC8010995009709F03EC1F801A5
:1015C00000851185EACFF3E0FF120EC08F898823D2
:1015D00009F440C0823061F440E86DE08DE391E0B1
:1015E0000E94CB02811148CF81E28093EB0047CF6C
:1015F000813029F440E86BE081E391E0F1CF833062
:1016000099F70E940302DC011296ED90FC908E0186
:101610000F5F1F4F6801E114F10479F0D701ED91DC
:10162000FC910680F781E02DB801C7010995080FEC
:10163000111DF701E084F184EECFD8011C92F60170
:1016400001900020E9F73197BF016C197D0940E056
:10165000C601C6CF6BE171E0FB01449150E080E828
:101660000E94FE0209CF973009F4BECF983021F4D2
:1016700081E08093F10000CF993009F0FDCE8370B6
:1016800009F0B2CFE7E1F1E081E031E096E32191AA
:10169000222371F08093E9003093EB00DF01119772
:1016A0002C912093EC009093ED008F5F873079F7B9
:1016B0008EE78093EA001092EA008F898093980168
:1016C000DBCE8B8D9C8D1092E90010927D011092E3
:1016D0007C0190937B0180937A01898D811192C066
:1016E0008E899D89913A49F4813209F07DCF47E096
:1016F00050E064E071E080E0B3CF913209F074CF44
:10170000833269F48F89988DB0E0A0E08093000166
:1017100090930101A0930201B0930301ADCE8032FA
:1017200069F48091E80082FFFCCF67E084E091E0FB
:101730000E94E2048BEF8093E8009ECE823209F093
:101740009BCE8F8980930B01EEEFFFE785919491FB
:101750008B3F9C4D51F1E0E0F8E0809104019091C5
:101760000501A0910601B0910701803B9440A105BD
:10177000B105F1F480910B0180FD1AC0EE3F8AE0C3
:10178000F80789F587E797E7918380838091600068
:1017900080937E0188E19BE00FB6F894A895809332
:1017A00060000FBE9093600067CEEEEFFAE0D5CFF9
:1017B000808191818737974709F05ECEA895809107
:1017C000600088618093600080917E01809360005A
:1017D000EE3F2AE0F20789F08091FE0A9091FF0A1D
:1017E0009183808349CE808191818737980751F218
:1017F0009093FF0A8093FE0AC5CF1092FF0A1092C1
:10180000FE0A3ACE0E940302DC0112960D911C9151
:101810000115110509F4E8CED801ED91FC91019074
:10182000F081E02DBE016B5E7F4FC80109958111EB
:1018300023CEF80100851185EBCF181619060CF49C
:101840001BCED2CEF1E0FF12BECE6FE171E004CF2D
:10185000CF9310929C0110929B0188EE93E0A0E040
:10186000B0E080939D0190939E01A0939F01B0935F
:10187000A00181E291E090939A01809399018FEF0A
:101880009FEF9093A6018093A501109213021092EE
:1018900012028FE391E090931102809310028091E5
:1018A0000802811113C0109203021092020285E215
:1018B00092E090930502809304028FE290E090936F
:1018C00007028093060281E0809308028091FA016A
:1018D00081112AC0C1E0C093ED01C093EE0183EFF6
:1018E00091E09093F0018093EF011092F201109239
:1018F000F10183E391E09093EA018093E901109272
:10190000F5011092F4011092F7011092F601C093C4
:10191000F801C093F90181EC8093F3010E94030266
:101920000E945501C093FA01E091F401F091F50194
:10193000309709F041C182E092E09093F5018093E5
:10194000F4018091F6019091F70120910602309107
:101950000702820F931F9093F7018093F60185EAA7
:1019600091E090931D0280931C021092E00210926D
:10197000E3022BE431E03093DF022093DE02109289
:10198000E60283E08093E70281E08093E80280939F
:10199000E9021092D4021092D7023093D30220931E
:1019A000D2021092DA0294E09093DB028093DC0280
:1019B0008093DD021092C8021092CB023093C702CE
:1019C0002093C6021092CE0295E09093CF028093AE
:1019D000D0028093D1021092BC021092BF023093C9
:1019E000BB022093BA021092C20296E09093C30207
:1019F0008093C4028093C5021092B0021092B30289
:101A00003093AF022093AE021092B60297E090930B
:101A1000B7028093B8028093B9021092A402109288
:101A2000A7023093A3022093A2021092AA0298E088
:101A30009093AB028093AC028093AD021092980217
:101A400010929B02309397022093960210929E026E
:101A500099E090939F028093A0028093A10210923C
:101A60008C0210928F0230938B0220938A02109284
:101A700092029AE09093930280939402809395024D
:101A8000109280021092830230937F0220937E0294
:101A9000109286029BE09093870280938802809345
:101AA000890210927402109277023093730220938D
:101AB000720210927A029CE090937B0280937C02E7
:101AC00080937D021092680210926B02309367023D
:101AD0002093660210926E029DE090936F028093B5
:101AE00070028093710210925C0210925F02309338
:101AF0005B0220935A021092620292E19093630279
:101B000080936402809365021092500210925302F7
:101B100030934F0220934E021092560293E190931D
:101B200057028093580280935902109244021092F7
:101B30004702309343022093420210924A0294E1FA
:101B400090934B0280934C0280934D021092380286
:101B500010923B02309337022093360210923E02DD
:101B600095E190933F02809340028093410210924E
:101B70002C0210922F0230932B0220932A021092F3
:101B8000320296E1909333028093340280933502BF
:101B9000109220021092230230931F0220931E0203
:101BA0001092260297E19093270280932802809357
:101BB0002902CF910895FC01808191810097D9F786
:101BC00082E092E091838083BCCECF93DF93CDB748
:101BD000DEB7A1970FB6F894DEBF0FBECDBF7894E5
:101BE00084B5826084BD84B5816084BD85B5826022
:101BF00085BD85B5816085BD80916E0081608093D3
:101C00006E0010928100809181008260809381003B
:101C1000809181008160809381008091800081604B
:101C200080938000809191008260809391008091E8
:101C300091008160809391008091900081608093F9
:101C400090008091C10084608093C1008091C100A8
:101C500082608093C1008091C10081608093C10047
:101C60008091C30081608093C3008091C000826036
:101C70008093C0008091C20081608093C2008091F7
:101C80007A00846080937A0080917A0082608093E9
:101C90007A0080917A00816080937A0080917A0046
:101CA000806880937A0010929801109281011092BE
:101CB00080018091D70081608093D70080EA809373
:101CC000D80089B5806189BD89B5826089BD09B4B4
:101CD00000FEFDCF0E9478028091D8008F7C806149
:101CE0008093D8008091E000807F8093E000809115
:101CF000E1008E7E8093E1008DE08093E200559AB2
:101D0000209A5D9828988FEF9FEF9093A60180937B
:101D1000A50185EA91E090931D0280931C02C12CDD
:101D2000D12C76019AE0492E512C612C712C19A2EC
:101D3000460157018E010F5D1F4FC501B401A3017C
:101D400092010E949412605DF80162938F01FAE0A3
:101D50008F169104A104B10408F025C201151105E4
:101D600019F0C8010E9451078DE491E00E945107CB
:101D700062E08FEF8C0D0E9417028FEFC81AD80A0D
:101D8000E80AF80AEFE0CE16D104E104F10479F68E
:101D900062E082E10E94170262E083E10E94170282
:101DA00062E084E10E94170262E085E10E9417026E
:101DB00062E086E10E94170262E087E10E9417025A
:101DC0008CE697E090931101809310018091690057
:101DD0008F7C80936900EA9A80EB97E090931301DF
:101DE00080931201809169008F7380936900EB9A50
:101DF00084EF97E090930F0180930E01809169002A
:101E0000837F80936900E99A00E010E08EE192E020
:101E10000E948B068111CCC18EED92E00E941207C8
:101E20008823B1F062E880E192E00E94B30561EEA0
:101E300080E192E00E94B30568EE80E192E00E94AA
:101E4000B30568EE80E192E00E94B3050E94D504DC
:101E500082ED92E00E9412078823B1F062E880E1EF
:101E600092E00E94B30561EE80E192E00E94B3052A
:101E700068EE80E192E00E94B30569EE80E192E0B5
:101E80000E94B3050E94D50486EC92E00E941207DE
:101E90008823B1F062E880E192E00E94B30561EE30
:101EA00080E192E00E94B30569EE80E192E00E9439
:101EB000B3056AEE80E192E00E94B3050E94D5046A
:101EC0008AEB92E00E9412078823B1F062E880E179
:101ED00092E00E94B30561EE80E192E00E94B305BA
:101EE00069EE80E192E00E94B30562EE80E192E04B
:101EF0000E94B3050E94D5048EEA92E00E94120768
:101F00008823B1F062E880E192E00E94B30561EEBF
:101F100080E192E00E94B30569EE80E192E00E94C8
:101F2000B30563EE80E192E00E94B3050E94D50400
:101F300082EA92E00E9412078823B1F062E880E111
:101F400092E00E94B30561EE80E192E00E94B30549
:101F500069EE80E192E00E94B30564EE80E192E0D8
:101F60000E94B3050E94D50486E992E00E94120700
:101F70008823B1F062E880E192E00E94B30561EE4F
:101F800080E192E00E94B30569EE80E192E00E9458
:101F9000B30565EE80E192E00E94B3050E94D5048E
:101FA0008AE892E00E9412078823B1F062E880E19B
:101FB00092E00E94B30561EE80E192E00E94B305D9
:101FC00069EE80E192E00E94B30566EE80E192E066
:101FD0000E94B3050E94D5048EE792E00E9412078A
:101FE0008823B1F062E880E192E00E94B30561EEDF
:101FF00080E192E00E94B30569EE80E192E00E94E8
:10200000B30567EE80E192E00E94B3050E94D5041B
:1020100082E792E00E9412078823B1F062E880E133
:1020200092E00E94B30561EE80E192E00E94B30568
:1020300069EE80E192E00E94B30568EE80E192E0F3
:102040000E94B3050E94D50486E692E00E94120722
:102050008823B1F062E880E192E00E94B30562EE6D
:1020600080E192E00E94B3056AEE80E192E00E9476
:10207000B30561EE80E192E00E94B3050E94D504B1
:102080008AE592E00E9412078823B1F062E880E1BD
:1020900092E00E94B30562EE80E192E00E94B305F7
:1020A0006AEE80E192E00E94B30563EE80E192E087
:1020B0000E94B3050E94D5048EE492E00E941207AC
:1020C0008823B1F062E880E192E00E94B30562EEFD
:1020D00080E192E00E94B3056AEE80E192E00E9406
:1020E000B30564EE80E192E00E94B3050E94D5043E
:1020F00082E492E00E9412078823B1F062E880E156
:1021000092E00E94B30562EE80E192E00E94B30586
:102110006AEE80E192E00E94B30565EE80E192E014
:102120000E94B3050E94D50486E392E00E94120744
:102130008823B1F062E880E192E00E94B30562EE8C
:1021400080E192E00E94B3056AEE80E192E00E9495
:10215000B30566EE80E192E00E94B3050E94D504CB
:102160008AE292E00E9412078823B1F062E880E1DF
:1021700092E00E94B30562EE80E192E00E94B30516
:102180006AEE80E192E00E94B30567EE80E192E0A2
:102190000E94B3050E94D5040115110509F436CE3D
:1021A0000E94000033CE812C912C54018394C5CD24
:1021B0008EED92E00E9412078823B1F062E880E180
:1021C00092E00E94B30562EE80E192E00E94B305C6
:1021D00061EE80E192E00E94B30567EE80E192E05B
:1021E0000E94B3050E94D50482ED92E00E9412077E
:1021F0008823B1F062E880E192E00E94B30562EECC
:1022000080E192E00E94B30561EE80E192E00E94DD
:10221000B30568EE80E192E00E94B3050E94D50408
:1022200086EC92E00E9412078823B1F062E880E118
:1022300092E00E94B30562EE80E192E00E94B30555
:1022400061EE80E192E00E94B30569EE80E192E0E8
:102250000E94B3050E94D5048AEB92E00E94120707
:102260008823B1F062E880E192E00E94B30562EE5B
:1022700080E192E00E94B30562EE80E192E00E946C
:10228000B3056AEE80E192E00E94B3050E94D50496
:102290008EEA92E00E9412078823B1F062E880E1A2
:1022A00092E00E94B30562EE80E192E00E94B305E5
:1022B00062EE80E192E00E94B30561EE80E192E07F
:1022C0000E94B3050E94D50482EA92E00E941207A0
:1022D0008823B1F062E880E192E00E94B30562EEEB
:1022E00080E192E00E94B30562EE80E192E00E94FC
:1022F000B30562EE80E192E00E94B3050E94D5042E
:1023000086E992E00E9412078823B1F062E880E13A
:1023100092E00E94B30561EE80E192E00E94B30575
:1023200069EE80E192E00E94B30564EE80E192E004
:102330000E94B3050E94D5048AE892E00E94120729
:102340008823B1F062E880E192E00E94B30561EE7B
:1023500080E192E00E94B30569EE80E192E00E9484
:10236000B30565EE80E192E00E94B3050E94D504BA
:102370008EE792E00E9412078823B1F062E880E1C4
:1023800092E00E94B30561EE80E192E00E94B30505
:1023900069EE80E192E00E94B30566EE80E192E092
:1023A0000E94B3050E94D50482E792E00E941207C2
:1023B0008823B1F062E880E192E00E94B30561EE0B
:1023C00080E192E00E94B30569EE80E192E00E9414
:1023D000B30567EE80E192E00E94B3050E94D50448
:1023E00086E692E00E9412078823B1F062E880E15D
:1023F00092E00E94B30561EE80E192E00E94B30595
:1024000069EE80E192E00E94B30568EE80E192E01F
:102410000E94B3050E94D5048AE592E00E9412074B
:102420008823B1F062E880E192E00E94B30561EE9A
:1024300080E192E00E94B30569EE80E192E00E94A3
:10244000B30569EE80E192E00E94B3050E94D504D5
:102450008EE492E00E9412078823B1F062E880E1E6
:1024600092E00E94B30562EE80E192E00E94B30523
:102470006AEE80E192E00E94B3056AEE80E192E0AC
:102480000E94B3050E94D50482E492E00E941207E4
:102490008823B1F062E880E192E00E94B30562EE29
:1024A00080E192E00E94B3056AEE80E192E00E9432
:1024B000B30561EE80E192E00E94B3050E94D5046D
:1024C00086E392E00E9412078823B1F062E880E17F
:1024D00092E00E94B30562EE80E192E00E94B305B3
:1024E0006AEE80E192E00E94B30562EE80E192E044
:1024F0000E94B3050E94D5048AE292E00E9412076E
:10250000882309F449CE62E880E192E00E94B30595
:1025100062EE80E192E00E94B3056AEE80E192E013
:102520000E94B30563EE32CEA1E21A2EAA1BBB1B9A
:10253000FD010DC0AA1FBB1FEE1FFF1FA217B3078F
:10254000E407F50720F0A21BB30BE40BF50B661FA5
:10255000771F881F991F1A9469F760957095809569
:1025600090959B01AC01BD01CF010895EE0FFF1FB7
:0C2570000590F491E02D0994F894FFCF41
:10257C00FFFFFFFF00E10000000000009C029C0236
:10258C009C029C029C0200C18081000000000000A3
:10259C00000505EF0426051B056D052B05490500F7
:1025AC00000000C5015F032403E8010000000031B6
:1025BC0006870588068706000000008B060D0A00BA
:1025CC00496E743000496E743100496E74320049A2
:0A25DC006E743253686966740000E3
:00000001FF
